{
    "_format": "hh-sol-artifact-1",
    "contractName": "houseMint",
    "sourceName": "contracts/lock1.sol",
    "abi": [
        {
            "inputs": [],
            "stateMutability": "nonpayable",
            "type": "constructor"
        },
        {
            "anonymous": false,
            "inputs": [
                {
                    "indexed": true,
                    "internalType": "address",
                    "name": "account",
                    "type": "address"
                },
                {
                    "indexed": true,
                    "internalType": "address",
                    "name": "operator",
                    "type": "address"
                },
                {
                    "indexed": false,
                    "internalType": "bool",
                    "name": "approved",
                    "type": "bool"
                }
            ],
            "name": "ApprovalForAll",
            "type": "event"
        },
        {
            "anonymous": false,
            "inputs": [
                {
                    "indexed": true,
                    "internalType": "address",
                    "name": "from",
                    "type": "address"
                },
                {
                    "indexed": true,
                    "internalType": "address",
                    "name": "to",
                    "type": "address"
                },
                {
                    "indexed": true,
                    "internalType": "uint64",
                    "name": "houseID",
                    "type": "uint64"
                },
                {
                    "indexed": false,
                    "internalType": "uint64",
                    "name": "amount",
                    "type": "uint64"
                }
            ],
            "name": "Buy",
            "type": "event"
        },
        {
            "anonymous": false,
            "inputs": [
                {
                    "indexed": true,
                    "internalType": "address",
                    "name": "operator",
                    "type": "address"
                },
                {
                    "indexed": true,
                    "internalType": "address",
                    "name": "from",
                    "type": "address"
                },
                {
                    "indexed": true,
                    "internalType": "address",
                    "name": "to",
                    "type": "address"
                },
                {
                    "indexed": false,
                    "internalType": "uint256[]",
                    "name": "ids",
                    "type": "uint256[]"
                },
                {
                    "indexed": false,
                    "internalType": "uint256[]",
                    "name": "values",
                    "type": "uint256[]"
                }
            ],
            "name": "TransferBatch",
            "type": "event"
        },
        {
            "anonymous": false,
            "inputs": [
                {
                    "indexed": true,
                    "internalType": "address",
                    "name": "operator",
                    "type": "address"
                },
                {
                    "indexed": true,
                    "internalType": "address",
                    "name": "from",
                    "type": "address"
                },
                {
                    "indexed": true,
                    "internalType": "address",
                    "name": "to",
                    "type": "address"
                },
                {
                    "indexed": false,
                    "internalType": "uint256",
                    "name": "id",
                    "type": "uint256"
                },
                {
                    "indexed": false,
                    "internalType": "uint256",
                    "name": "value",
                    "type": "uint256"
                }
            ],
            "name": "TransferSingle",
            "type": "event"
        },
        {
            "anonymous": false,
            "inputs": [
                {
                    "indexed": false,
                    "internalType": "string",
                    "name": "value",
                    "type": "string"
                },
                {
                    "indexed": true,
                    "internalType": "uint256",
                    "name": "id",
                    "type": "uint256"
                }
            ],
            "name": "URI",
            "type": "event"
        },
        {
            "anonymous": false,
            "inputs": [
                {
                    "indexed": true,
                    "internalType": "address",
                    "name": "owner",
                    "type": "address"
                },
                {
                    "indexed": true,
                    "internalType": "uint64",
                    "name": "houseID",
                    "type": "uint64"
                }
            ],
            "name": "houseDetailsUpdated",
            "type": "event"
        },
        {
            "anonymous": false,
            "inputs": [
                {
                    "indexed": true,
                    "internalType": "address",
                    "name": "owner",
                    "type": "address"
                },
                {
                    "indexed": true,
                    "internalType": "uint64",
                    "name": "houseID",
                    "type": "uint64"
                },
                {
                    "indexed": true,
                    "internalType": "uint64",
                    "name": "totalAmount",
                    "type": "uint64"
                }
            ],
            "name": "houseMinted",
            "type": "event"
        },
        {
            "inputs": [
                {
                    "internalType": "address",
                    "name": "",
                    "type": "address"
                },
                {
                    "internalType": "uint64",
                    "name": "",
                    "type": "uint64"
                },
                {
                    "internalType": "uint64",
                    "name": "",
                    "type": "uint64"
                }
            ],
            "name": "Add1",
            "outputs": [
                {
                    "internalType": "uint64",
                    "name": "houseID",
                    "type": "uint64"
                },
                {
                    "internalType": "address",
                    "name": "from",
                    "type": "address"
                },
                {
                    "internalType": "uint64",
                    "name": "amount",
                    "type": "uint64"
                },
                {
                    "internalType": "uint64",
                    "name": "Type",
                    "type": "uint64"
                },
                {
                    "internalType": "address",
                    "name": "to",
                    "type": "address"
                },
                {
                    "internalType": "uint256",
                    "name": "time",
                    "type": "uint256"
                }
            ],
            "stateMutability": "view",
            "type": "function"
        },
        {
            "inputs": [
                {
                    "internalType": "address",
                    "name": "",
                    "type": "address"
                },
                {
                    "internalType": "uint64",
                    "name": "",
                    "type": "uint64"
                },
                {
                    "internalType": "uint64",
                    "name": "",
                    "type": "uint64"
                }
            ],
            "name": "Add2",
            "outputs": [
                {
                    "internalType": "uint64",
                    "name": "houseID",
                    "type": "uint64"
                },
                {
                    "internalType": "address",
                    "name": "from",
                    "type": "address"
                },
                {
                    "internalType": "uint64",
                    "name": "amount",
                    "type": "uint64"
                },
                {
                    "internalType": "uint64",
                    "name": "Type",
                    "type": "uint64"
                },
                {
                    "internalType": "address",
                    "name": "to",
                    "type": "address"
                },
                {
                    "internalType": "uint256",
                    "name": "time",
                    "type": "uint256"
                }
            ],
            "stateMutability": "view",
            "type": "function"
        },
        {
            "inputs": [
                {
                    "internalType": "uint64",
                    "name": "",
                    "type": "uint64"
                },
                {
                    "internalType": "address",
                    "name": "",
                    "type": "address"
                }
            ],
            "name": "AvailableProperty",
            "outputs": [
                {
                    "internalType": "uint64",
                    "name": "",
                    "type": "uint64"
                }
            ],
            "stateMutability": "view",
            "type": "function"
        },
        {
            "inputs": [
                {
                    "internalType": "uint64",
                    "name": "_houseID",
                    "type": "uint64"
                },
                {
                    "internalType": "address",
                    "name": "from",
                    "type": "address"
                },
                {
                    "internalType": "address",
                    "name": "to",
                    "type": "address"
                },
                {
                    "internalType": "uint64",
                    "name": "amount",
                    "type": "uint64"
                }
            ],
            "name": "Buy_Sell",
            "outputs": [],
            "stateMutability": "nonpayable",
            "type": "function"
        },
        {
            "inputs": [],
            "name": "CreatorFee",
            "outputs": [
                {
                    "internalType": "uint8",
                    "name": "",
                    "type": "uint8"
                }
            ],
            "stateMutability": "view",
            "type": "function"
        },
        {
            "inputs": [
                {
                    "internalType": "uint64",
                    "name": "",
                    "type": "uint64"
                }
            ],
            "name": "Initial_TotalArea",
            "outputs": [
                {
                    "internalType": "uint64",
                    "name": "",
                    "type": "uint64"
                }
            ],
            "stateMutability": "view",
            "type": "function"
        },
        {
            "inputs": [
                {
                    "components": [
                        {
                            "internalType": "string",
                            "name": "houseName",
                            "type": "string"
                        },
                        {
                            "internalType": "string",
                            "name": "propertyDescription",
                            "type": "string"
                        },
                        {
                            "internalType": "uint64",
                            "name": "currentPrice",
                            "type": "uint64"
                        },
                        {
                            "internalType": "uint64",
                            "name": "propertyValuation",
                            "type": "uint64"
                        },
                        {
                            "internalType": "uint64",
                            "name": "TotalPropertySize",
                            "type": "uint64"
                        }
                    ],
                    "internalType": "struct houseMint.house",
                    "name": "lot",
                    "type": "tuple"
                },
                {
                    "components": [
                        {
                            "internalType": "string",
                            "name": "Address",
                            "type": "string"
                        },
                        {
                            "internalType": "string",
                            "name": "latitude",
                            "type": "string"
                        },
                        {
                            "internalType": "string",
                            "name": "longitude",
                            "type": "string"
                        },
                        {
                            "internalType": "uint32",
                            "name": "bedrooms",
                            "type": "uint32"
                        },
                        {
                            "internalType": "uint32",
                            "name": "bathrooms",
                            "type": "uint32"
                        },
                        {
                            "internalType": "uint16",
                            "name": "floors",
                            "type": "uint16"
                        }
                    ],
                    "internalType": "struct houseMint.house1",
                    "name": "lot1",
                    "type": "tuple"
                },
                {
                    "internalType": "string[]",
                    "name": "tokenURIs",
                    "type": "string[]"
                }
            ],
            "name": "MintHouse",
            "outputs": [],
            "stateMutability": "nonpayable",
            "type": "function"
        },
        {
            "inputs": [
                {
                    "internalType": "uint64",
                    "name": "",
                    "type": "uint64"
                },
                {
                    "internalType": "uint64",
                    "name": "",
                    "type": "uint64"
                }
            ],
            "name": "TXN_by_houseID",
            "outputs": [
                {
                    "internalType": "uint64",
                    "name": "houseID",
                    "type": "uint64"
                },
                {
                    "internalType": "address",
                    "name": "from",
                    "type": "address"
                },
                {
                    "internalType": "address",
                    "name": "to",
                    "type": "address"
                },
                {
                    "internalType": "uint64",
                    "name": "amount",
                    "type": "uint64"
                },
                {
                    "internalType": "uint256",
                    "name": "time",
                    "type": "uint256"
                }
            ],
            "stateMutability": "view",
            "type": "function"
        },
        {
            "inputs": [
                {
                    "internalType": "address",
                    "name": "account",
                    "type": "address"
                },
                {
                    "internalType": "uint256",
                    "name": "id",
                    "type": "uint256"
                }
            ],
            "name": "balanceOf",
            "outputs": [
                {
                    "internalType": "uint256",
                    "name": "",
                    "type": "uint256"
                }
            ],
            "stateMutability": "view",
            "type": "function"
        },
        {
            "inputs": [
                {
                    "internalType": "address[]",
                    "name": "accounts",
                    "type": "address[]"
                },
                {
                    "internalType": "uint256[]",
                    "name": "ids",
                    "type": "uint256[]"
                }
            ],
            "name": "balanceOfBatch",
            "outputs": [
                {
                    "internalType": "uint256[]",
                    "name": "",
                    "type": "uint256[]"
                }
            ],
            "stateMutability": "view",
            "type": "function"
        },
        {
            "inputs": [
                {
                    "internalType": "uint256",
                    "name": "",
                    "type": "uint256"
                },
                {
                    "internalType": "address",
                    "name": "",
                    "type": "address"
                }
            ],
            "name": "balance_By_Address",
            "outputs": [
                {
                    "internalType": "uint256",
                    "name": "",
                    "type": "uint256"
                }
            ],
            "stateMutability": "view",
            "type": "function"
        },
        {
            "inputs": [
                {
                    "internalType": "uint64",
                    "name": "",
                    "type": "uint64"
                }
            ],
            "name": "houseDetails",
            "outputs": [
                {
                    "internalType": "string",
                    "name": "houseName",
                    "type": "string"
                },
                {
                    "internalType": "string",
                    "name": "propertyDescription",
                    "type": "string"
                },
                {
                    "internalType": "uint64",
                    "name": "currentPrice",
                    "type": "uint64"
                },
                {
                    "internalType": "uint64",
                    "name": "propertyValuation",
                    "type": "uint64"
                },
                {
                    "internalType": "uint64",
                    "name": "TotalPropertySize",
                    "type": "uint64"
                }
            ],
            "stateMutability": "view",
            "type": "function"
        },
        {
            "inputs": [
                {
                    "internalType": "uint64",
                    "name": "",
                    "type": "uint64"
                }
            ],
            "name": "houseDetails1",
            "outputs": [
                {
                    "internalType": "string",
                    "name": "Address",
                    "type": "string"
                },
                {
                    "internalType": "string",
                    "name": "latitude",
                    "type": "string"
                },
                {
                    "internalType": "string",
                    "name": "longitude",
                    "type": "string"
                },
                {
                    "internalType": "uint32",
                    "name": "bedrooms",
                    "type": "uint32"
                },
                {
                    "internalType": "uint32",
                    "name": "bathrooms",
                    "type": "uint32"
                },
                {
                    "internalType": "uint16",
                    "name": "floors",
                    "type": "uint16"
                }
            ],
            "stateMutability": "view",
            "type": "function"
        },
        {
            "inputs": [],
            "name": "houseID",
            "outputs": [
                {
                    "internalType": "uint64",
                    "name": "",
                    "type": "uint64"
                }
            ],
            "stateMutability": "view",
            "type": "function"
        },
        {
            "inputs": [
                {
                    "internalType": "address",
                    "name": "account",
                    "type": "address"
                },
                {
                    "internalType": "address",
                    "name": "operator",
                    "type": "address"
                }
            ],
            "name": "isApprovedForAll",
            "outputs": [
                {
                    "internalType": "bool",
                    "name": "",
                    "type": "bool"
                }
            ],
            "stateMutability": "view",
            "type": "function"
        },
        {
            "inputs": [
                {
                    "internalType": "uint64",
                    "name": "",
                    "type": "uint64"
                }
            ],
            "name": "ownerOf",
            "outputs": [
                {
                    "internalType": "address",
                    "name": "",
                    "type": "address"
                }
            ],
            "stateMutability": "view",
            "type": "function"
        },
        {
            "inputs": [
                {
                    "internalType": "address",
                    "name": "from",
                    "type": "address"
                },
                {
                    "internalType": "address",
                    "name": "to",
                    "type": "address"
                },
                {
                    "internalType": "uint256[]",
                    "name": "ids",
                    "type": "uint256[]"
                },
                {
                    "internalType": "uint256[]",
                    "name": "amounts",
                    "type": "uint256[]"
                },
                {
                    "internalType": "bytes",
                    "name": "data",
                    "type": "bytes"
                }
            ],
            "name": "safeBatchTransferFrom",
            "outputs": [],
            "stateMutability": "nonpayable",
            "type": "function"
        },
        {
            "inputs": [
                {
                    "internalType": "address",
                    "name": "from",
                    "type": "address"
                },
                {
                    "internalType": "address",
                    "name": "to",
                    "type": "address"
                },
                {
                    "internalType": "uint256",
                    "name": "id",
                    "type": "uint256"
                },
                {
                    "internalType": "uint256",
                    "name": "amount",
                    "type": "uint256"
                },
                {
                    "internalType": "bytes",
                    "name": "data",
                    "type": "bytes"
                }
            ],
            "name": "safeTransferFrom",
            "outputs": [],
            "stateMutability": "nonpayable",
            "type": "function"
        },
        {
            "inputs": [
                {
                    "internalType": "address",
                    "name": "operator",
                    "type": "address"
                },
                {
                    "internalType": "bool",
                    "name": "approved",
                    "type": "bool"
                }
            ],
            "name": "setApprovalForAll",
            "outputs": [],
            "stateMutability": "nonpayable",
            "type": "function"
        },
        {
            "inputs": [],
            "name": "slug",
            "outputs": [
                {
                    "internalType": "string",
                    "name": "",
                    "type": "string"
                }
            ],
            "stateMutability": "view",
            "type": "function"
        },
        {
            "inputs": [
                {
                    "internalType": "bytes4",
                    "name": "interfaceId",
                    "type": "bytes4"
                }
            ],
            "name": "supportsInterface",
            "outputs": [
                {
                    "internalType": "bool",
                    "name": "",
                    "type": "bool"
                }
            ],
            "stateMutability": "view",
            "type": "function"
        },
        {
            "inputs": [
                {
                    "internalType": "uint64",
                    "name": "",
                    "type": "uint64"
                },
                {
                    "internalType": "uint256",
                    "name": "",
                    "type": "uint256"
                }
            ],
            "name": "tokenURI_ById",
            "outputs": [
                {
                    "internalType": "string",
                    "name": "",
                    "type": "string"
                }
            ],
            "stateMutability": "view",
            "type": "function"
        },
        {
            "inputs": [],
            "name": "totalTxn",
            "outputs": [
                {
                    "internalType": "uint64",
                    "name": "",
                    "type": "uint64"
                }
            ],
            "stateMutability": "view",
            "type": "function"
        },
        {
            "inputs": [
                {
                    "internalType": "uint64",
                    "name": "_houseID",
                    "type": "uint64"
                },
                {
                    "components": [
                        {
                            "internalType": "string",
                            "name": "new_HouseName",
                            "type": "string"
                        },
                        {
                            "internalType": "string",
                            "name": "new_propertyDescription",
                            "type": "string"
                        },
                        {
                            "internalType": "uint64",
                            "name": "new_currentPrice",
                            "type": "uint64"
                        },
                        {
                            "internalType": "uint64",
                            "name": "new_propertyValuation",
                            "type": "uint64"
                        },
                        {
                            "internalType": "string",
                            "name": "new_Address",
                            "type": "string"
                        },
                        {
                            "internalType": "string",
                            "name": "new_latitude",
                            "type": "string"
                        },
                        {
                            "internalType": "string",
                            "name": "new_longitude",
                            "type": "string"
                        },
                        {
                            "internalType": "uint32",
                            "name": "new_bedrooms",
                            "type": "uint32"
                        },
                        {
                            "internalType": "uint32",
                            "name": "new_bathrooms",
                            "type": "uint32"
                        },
                        {
                            "internalType": "uint16",
                            "name": "new_floors",
                            "type": "uint16"
                        }
                    ],
                    "internalType": "struct houseMint.updateHouse",
                    "name": "newLot",
                    "type": "tuple"
                },
                {
                    "internalType": "string[]",
                    "name": "newURI",
                    "type": "string[]"
                }
            ],
            "name": "updateDetails",
            "outputs": [],
            "stateMutability": "nonpayable",
            "type": "function"
        },
        {
            "inputs": [
                {
                    "internalType": "uint256",
                    "name": "",
                    "type": "uint256"
                }
            ],
            "name": "uri",
            "outputs": [
                {
                    "internalType": "string",
                    "name": "",
                    "type": "string"
                }
            ],
            "stateMutability": "view",
            "type": "function"
        }
    ],
    "bytecode": "0x60806040523480156200001157600080fd5b506040518060200160405280600081525062000033816200003a60201b60201c565b50620003b0565b80600290816200004b9190620002c9565b5050565b600081519050919050565b7f4e487b7100000000000000000000000000000000000000000000000000000000600052604160045260246000fd5b7f4e487b7100000000000000000000000000000000000000000000000000000000600052602260045260246000fd5b60006002820490506001821680620000d157607f821691505b602082108103620000e757620000e662000089565b5b50919050565b60008190508160005260206000209050919050565b60006020601f8301049050919050565b600082821b905092915050565b600060088302620001517fffffffffffffffffffffffffffffffffffffffffffffffffffffffffffffffff8262000112565b6200015d868362000112565b95508019841693508086168417925050509392505050565b6000819050919050565b6000819050919050565b6000620001aa620001a46200019e8462000175565b6200017f565b62000175565b9050919050565b6000819050919050565b620001c68362000189565b620001de620001d582620001b1565b8484546200011f565b825550505050565b600090565b620001f5620001e6565b62000202818484620001bb565b505050565b5b818110156200022a576200021e600082620001eb565b60018101905062000208565b5050565b601f82111562000279576200024381620000ed565b6200024e8462000102565b810160208510156200025e578190505b620002766200026d8562000102565b83018262000207565b50505b505050565b600082821c905092915050565b60006200029e600019846008026200027e565b1980831691505092915050565b6000620002b983836200028b565b9150826002028217905092915050565b620002d4826200004f565b67ffffffffffffffff811115620002f057620002ef6200005a565b5b620002fc8254620000b8565b620003098282856200022e565b600060209050601f8311600181146200034157600084156200032c578287015190505b620003388582620002ab565b865550620003a8565b601f1984166200035186620000ed565b60005b828110156200037b5784890151825560018201915060208501945060208101905062000354565b868310156200039b578489015162000397601f8916826200028b565b8355505b6001600288020188555050505b505050505050565b615caf80620003c06000396000f3fe608060405234801561001057600080fd5b50600436106101725760003560e01c806396ee52ae116100de578063c7608f7111610097578063f0ad42f111610071578063f0ad42f1146104e1578063f242432a14610511578063f995df9e1461052d578063fccbbc9d1461056257610172565b8063c7608f7114610465578063db1d946d14610481578063e985e9c5146104b157610172565b806396ee52ae1461038b578063a22cb465146103bf578063a50fdefd146103db578063a6d86818146103f9578063ab0ca44b14610417578063b2845c511461043557610172565b80634e70bf07116101305780634e70bf07146102835780635809d30f1461029f5780636beb7959146102d35780637903a617146102f157806385ecb87f1461032157806390d3be191461035657610172565b8062fdd58e1461017757806301ffc9a7146101a75780630e89341c146101d75780632c52e071146102075780632eb2c2d6146102375780634e1273f414610253575b600080fd5b610191600480360381019061018c9190613a86565b61057e565b60405161019e9190613ad5565b60405180910390f35b6101c160048036038101906101bc9190613b48565b610646565b6040516101ce9190613b90565b60405180910390f35b6101f160048036038101906101ec9190613bab565b610728565b6040516101fe9190613c68565b60405180910390f35b610221600480360381019061021c9190613cca565b6107bc565b60405161022e9190613d19565b60405180910390f35b610251600480360381019061024c9190613f31565b6107f2565b005b61026d600480360381019061026891906140c3565b610893565b60405161027a91906141f9565b60405180910390f35b61029d6004803603810190610298919061459f565b6109ac565b005b6102b960048036038101906102b4919061462a565b610ee0565b6040516102ca959493929190614657565b60405180910390f35b6102db611062565b6040516102e89190613c68565b60405180910390f35b61030b6004803603810190610306919061462a565b6110f0565b60405161031891906146c7565b60405180910390f35b61033b600480360381019061033691906146e2565b611123565b60405161034d96959493929190614735565b60405180910390f35b610370600480360381019061036b91906146e2565b6111f5565b60405161038296959493929190614735565b60405180910390f35b6103a560048036038101906103a09190614796565b6112c7565b6040516103b69594939291906147d6565b60405180910390f35b6103d960048036038101906103d49190614855565b611372565b005b6103e3611388565b6040516103f09190613d19565b60405180910390f35b6104016113a2565b60405161040e9190613d19565b60405180910390f35b61041f6113bc565b60405161042c91906148b1565b60405180910390f35b61044f600480360381019061044a919061462a565b6113c1565b60405161045c9190613d19565b60405180910390f35b61047f600480360381019061047a91906148cc565b6113e8565b005b61049b60048036038101906104969190614933565b611fe1565b6040516104a89190613ad5565b60405180910390f35b6104cb60048036038101906104c69190614973565b612006565b6040516104d89190613b90565b60405180910390f35b6104fb60048036038101906104f691906149b3565b61209a565b6040516105089190613c68565b60405180910390f35b61052b600480360381019061052691906149f3565b612153565b005b6105476004803603810190610542919061462a565b6121f4565b60405161055996959493929190614aa8565b60405180910390f35b61057c60048036038101906105779190614cd6565b6123f6565b005b60008073ffffffffffffffffffffffffffffffffffffffff168373ffffffffffffffffffffffffffffffffffffffff16036105ee576040517f08c379a00000000000000000000000000000000000000000000000000000000081526004016105e590614def565b60405180910390fd5b60008083815260200190815260200160002060008473ffffffffffffffffffffffffffffffffffffffff1673ffffffffffffffffffffffffffffffffffffffff16815260200190815260200160002054905092915050565b60007fd9b67a26000000000000000000000000000000000000000000000000000000007bffffffffffffffffffffffffffffffffffffffffffffffffffffffff1916827bffffffffffffffffffffffffffffffffffffffffffffffffffffffff1916148061071157507f0e89341c000000000000000000000000000000000000000000000000000000007bffffffffffffffffffffffffffffffffffffffffffffffffffffffff1916827bffffffffffffffffffffffffffffffffffffffffffffffffffffffff1916145b80610721575061072082612b5f565b5b9050919050565b60606002805461073790614e3e565b80601f016020809104026020016040519081016040528092919081815260200182805461076390614e3e565b80156107b05780601f10610785576101008083540402835291602001916107b0565b820191906000526020600020905b81548152906001019060200180831161079357829003601f168201915b50505050509050919050565b60086020528160005260406000206020528060005260406000206000915091509054906101000a900467ffffffffffffffff1681565b6107fa612bc9565b73ffffffffffffffffffffffffffffffffffffffff168573ffffffffffffffffffffffffffffffffffffffff161480610840575061083f8561083a612bc9565b612006565b5b61087f576040517f08c379a000000000000000000000000000000000000000000000000000000000815260040161087690614ee1565b60405180910390fd5b61088c8585858585612bd1565b5050505050565b606081518351146108d9576040517f08c379a00000000000000000000000000000000000000000000000000000000081526004016108d090614f73565b60405180910390fd5b6000835167ffffffffffffffff8111156108f6576108f5613d39565b5b6040519080825280602002602001820160405280156109245781602001602082028036833780820191505090505b50905060005b84518110156109a15761097185828151811061094957610948614f93565b5b602002602001015185838151811061096457610963614f93565b5b602002602001015161057e565b82828151811061098457610983614f93565b5b6020026020010181815250508061099a90614ff1565b905061092a565b508091505092915050565b3373ffffffffffffffffffffffffffffffffffffffff16600a60008567ffffffffffffffff1667ffffffffffffffff16815260200190815260200160002060009054906101000a900473ffffffffffffffffffffffffffffffffffffffff1673ffffffffffffffffffffffffffffffffffffffff1614610a61576040517f08c379a0000000000000000000000000000000000000000000000000000000008152600401610a5890615085565b60405180910390fd5b60008290508060000151600660008667ffffffffffffffff1667ffffffffffffffff1681526020019081526020016000206000019081610aa19190615251565b508060200151600660008667ffffffffffffffff1667ffffffffffffffff1681526020019081526020016000206001019081610add9190615251565b508060400151600660008667ffffffffffffffff1667ffffffffffffffff16815260200190815260200160002060020160006101000a81548167ffffffffffffffff021916908367ffffffffffffffff1602179055508060600151600660008667ffffffffffffffff1667ffffffffffffffff16815260200190815260200160002060020160086101000a81548167ffffffffffffffff021916908367ffffffffffffffff1602179055508060800151600760008667ffffffffffffffff1667ffffffffffffffff1681526020019081526020016000206000019081610bc39190615251565b508060a00151600760008667ffffffffffffffff1667ffffffffffffffff1681526020019081526020016000206001019081610bff9190615251565b508060c00151600760008667ffffffffffffffff1667ffffffffffffffff1681526020019081526020016000206002019081610c3b9190615251565b508060e00151600760008667ffffffffffffffff1667ffffffffffffffff16815260200190815260200160002060030160006101000a81548163ffffffff021916908363ffffffff160217905550806101000151600760008667ffffffffffffffff1667ffffffffffffffff16815260200190815260200160002060030160046101000a81548163ffffffff021916908363ffffffff160217905550806101200151600760008667ffffffffffffffff1667ffffffffffffffff16815260200190815260200160002060030160086101000a81548161ffff021916908361ffff1602179055506000836040015167ffffffffffffffff16118015610d555750680ad78ebc5ac6200000836040015167ffffffffffffffff16105b8015610d6f57506000836060015167ffffffffffffffff16115b8015610d85575060008360e0015163ffffffff16115b8015610d9e5750633b9ac9ff8360e0015163ffffffff16105b8015610db55750600083610100015163ffffffff16115b8015610dcf5750633b9ac9ff83610100015163ffffffff16105b8015610de55750600083610120015161ffff1610155b8015610dfb575061270f83610120015161ffff16105b610e3a576040517f08c379a0000000000000000000000000000000000000000000000000000000008152600401610e3190615395565b60405180910390fd5b81600960008667ffffffffffffffff1667ffffffffffffffff1681526020019081526020016000209080519060200190610e75929190613904565b50600360009054906101000a900467ffffffffffffffff1667ffffffffffffffff163373ffffffffffffffffffffffffffffffffffffffff167fa572efbd2d19ac1e29f4ddfd2494d1ba0a7893b282a7c2787531356a071cfb7160405160405180910390a350505050565b6006602052806000526040600020600091509050806000018054610f0390614e3e565b80601f0160208091040260200160405190810160405280929190818152602001828054610f2f90614e3e565b8015610f7c5780601f10610f5157610100808354040283529160200191610f7c565b820191906000526020600020905b815481529060010190602001808311610f5f57829003601f168201915b505050505090806001018054610f9190614e3e565b80601f0160208091040260200160405190810160405280929190818152602001828054610fbd90614e3e565b801561100a5780601f10610fdf5761010080835404028352916020019161100a565b820191906000526020600020905b815481529060010190602001808311610fed57829003601f168201915b5050505050908060020160009054906101000a900467ffffffffffffffff16908060020160089054906101000a900467ffffffffffffffff16908060020160109054906101000a900467ffffffffffffffff16905085565b6004805461106f90614e3e565b80601f016020809104026020016040519081016040528092919081815260200182805461109b90614e3e565b80156110e85780601f106110bd576101008083540402835291602001916110e8565b820191906000526020600020905b8154815290600101906020018083116110cb57829003601f168201915b505050505081565b600a6020528060005260406000206000915054906101000a900473ffffffffffffffffffffffffffffffffffffffff1681565b600e60205282600052604060002060205281600052604060002060205280600052604060002060009250925050508060000160009054906101000a900467ffffffffffffffff16908060000160089054906101000a900473ffffffffffffffffffffffffffffffffffffffff16908060010160009054906101000a900467ffffffffffffffff16908060010160089054906101000a900467ffffffffffffffff16908060020160009054906101000a900473ffffffffffffffffffffffffffffffffffffffff16908060030154905086565b600f60205282600052604060002060205281600052604060002060205280600052604060002060009250925050508060000160009054906101000a900467ffffffffffffffff16908060000160089054906101000a900473ffffffffffffffffffffffffffffffffffffffff16908060010160009054906101000a900467ffffffffffffffff16908060010160089054906101000a900467ffffffffffffffff16908060020160009054906101000a900473ffffffffffffffffffffffffffffffffffffffff16908060030154905086565b600d602052816000526040600020602052806000526040600020600091509150508060000160009054906101000a900467ffffffffffffffff16908060000160089054906101000a900473ffffffffffffffffffffffffffffffffffffffff16908060010160009054906101000a900473ffffffffffffffffffffffffffffffffffffffff16908060010160149054906101000a900467ffffffffffffffff16908060020154905085565b61138461137d612bc9565b8383612ef2565b5050565b600360009054906101000a900467ffffffffffffffff1681565b600560009054906101000a900467ffffffffffffffff1681565b600181565b600b6020528060005260406000206000915054906101000a900467ffffffffffffffff1681565b60006040518060400160405280600481526020017f30786162000000000000000000000000000000000000000000000000000000008152509050600080600190508367ffffffffffffffff16611448878967ffffffffffffffff1661057e565b1015611489576040517f08c379a00000000000000000000000000000000000000000000000000000000081526004016114809061544d565b60405180910390fd5b8367ffffffffffffffff16600c60008967ffffffffffffffff16815260200190815260200160002060008873ffffffffffffffffffffffffffffffffffffffff1673ffffffffffffffffffffffffffffffffffffffff168152602001908152602001600020541015611530576040517f08c379a0000000000000000000000000000000000000000000000000000000008152600401611527906154b9565b60405180910390fd5b61155186868967ffffffffffffffff168767ffffffffffffffff1687612153565b61155c856001611372565b8367ffffffffffffffff16600c60008967ffffffffffffffff16815260200190815260200160002060008873ffffffffffffffffffffffffffffffffffffffff1673ffffffffffffffffffffffffffffffffffffffff16815260200190815260200160002060008282546115d091906154d9565b925050819055508367ffffffffffffffff16600c60008967ffffffffffffffff16815260200190815260200160002060008773ffffffffffffffffffffffffffffffffffffffff1673ffffffffffffffffffffffffffffffffffffffff168152602001908152602001600020600082825461164b919061550d565b925050819055506005600081819054906101000a900467ffffffffffffffff1661167490615541565b91906101000a81548167ffffffffffffffff021916908367ffffffffffffffff16021790555060006040518060a00160405280600360009054906101000a900467ffffffffffffffff1667ffffffffffffffff1681526020018873ffffffffffffffffffffffffffffffffffffffff1681526020018773ffffffffffffffffffffffffffffffffffffffff1681526020018667ffffffffffffffff16815260200142815250905060006040518060c00160405280600360009054906101000a900467ffffffffffffffff1667ffffffffffffffff1681526020018973ffffffffffffffffffffffffffffffffffffffff1681526020018767ffffffffffffffff1681526020018560ff1667ffffffffffffffff1681526020018873ffffffffffffffffffffffffffffffffffffffff16815260200142815250905080600e60008a73ffffffffffffffffffffffffffffffffffffffff1673ffffffffffffffffffffffffffffffffffffffff1681526020019081526020016000206000600360009054906101000a900467ffffffffffffffff1667ffffffffffffffff1667ffffffffffffffff1681526020019081526020016000206000600560009054906101000a900467ffffffffffffffff1667ffffffffffffffff1667ffffffffffffffff16815260200190815260200160002060008201518160000160006101000a81548167ffffffffffffffff021916908367ffffffffffffffff16021790555060208201518160000160086101000a81548173ffffffffffffffffffffffffffffffffffffffff021916908373ffffffffffffffffffffffffffffffffffffffff16021790555060408201518160010160006101000a81548167ffffffffffffffff021916908367ffffffffffffffff16021790555060608201518160010160086101000a81548167ffffffffffffffff021916908367ffffffffffffffff16021790555060808201518160020160006101000a81548173ffffffffffffffffffffffffffffffffffffffff021916908373ffffffffffffffffffffffffffffffffffffffff16021790555060a0820151816003015590505060006040518060c00160405280600360009054906101000a900467ffffffffffffffff1667ffffffffffffffff1681526020018a73ffffffffffffffffffffffffffffffffffffffff1681526020018867ffffffffffffffff1681526020018560ff1667ffffffffffffffff1681526020018973ffffffffffffffffffffffffffffffffffffffff16815260200142815250905080600e60008a73ffffffffffffffffffffffffffffffffffffffff1673ffffffffffffffffffffffffffffffffffffffff1681526020019081526020016000206000600360009054906101000a900467ffffffffffffffff1667ffffffffffffffff1667ffffffffffffffff1681526020019081526020016000206000600560009054906101000a900467ffffffffffffffff1667ffffffffffffffff1667ffffffffffffffff16815260200190815260200160002060008201518160000160006101000a81548167ffffffffffffffff021916908367ffffffffffffffff16021790555060208201518160000160086101000a81548173ffffffffffffffffffffffffffffffffffffffff021916908373ffffffffffffffffffffffffffffffffffffffff16021790555060408201518160010160006101000a81548167ffffffffffffffff021916908367ffffffffffffffff16021790555060608201518160010160086101000a81548167ffffffffffffffff021916908367ffffffffffffffff16021790555060808201518160020160006101000a81548173ffffffffffffffffffffffffffffffffffffffff021916908373ffffffffffffffffffffffffffffffffffffffff16021790555060a0820151816003015590505080600f60008a73ffffffffffffffffffffffffffffffffffffffff1673ffffffffffffffffffffffffffffffffffffffff1681526020019081526020016000206000600360009054906101000a900467ffffffffffffffff1667ffffffffffffffff1667ffffffffffffffff1681526020019081526020016000206000600560009054906101000a900467ffffffffffffffff1667ffffffffffffffff1667ffffffffffffffff16815260200190815260200160002060008201518160000160006101000a81548167ffffffffffffffff021916908367ffffffffffffffff16021790555060208201518160000160086101000a81548173ffffffffffffffffffffffffffffffffffffffff021916908373ffffffffffffffffffffffffffffffffffffffff16021790555060408201518160010160006101000a81548167ffffffffffffffff021916908367ffffffffffffffff16021790555060608201518160010160086101000a81548167ffffffffffffffff021916908367ffffffffffffffff16021790555060808201518160020160006101000a81548173ffffffffffffffffffffffffffffffffffffffff021916908373ffffffffffffffffffffffffffffffffffffffff16021790555060a0820151816003015590505082600d6000600360009054906101000a900467ffffffffffffffff1667ffffffffffffffff1667ffffffffffffffff1681526020019081526020016000206000600560009054906101000a900467ffffffffffffffff1667ffffffffffffffff1667ffffffffffffffff16815260200190815260200160002060008201518160000160006101000a81548167ffffffffffffffff021916908367ffffffffffffffff16021790555060208201518160000160086101000a81548173ffffffffffffffffffffffffffffffffffffffff021916908373ffffffffffffffffffffffffffffffffffffffff16021790555060408201518160010160006101000a81548173ffffffffffffffffffffffffffffffffffffffff021916908373ffffffffffffffffffffffffffffffffffffffff16021790555060608201518160010160146101000a81548167ffffffffffffffff021916908367ffffffffffffffff16021790555060808201518160020155905050600360009054906101000a900467ffffffffffffffff1667ffffffffffffffff168873ffffffffffffffffffffffffffffffffffffffff168a73ffffffffffffffffffffffffffffffffffffffff167f4d76ee6fdba0b93457d0613a4f234d3b811bf62a20aaeb54ad347eca632a93218a604051611fcd9190613d19565b60405180910390a450505050505050505050565b600c602052816000526040600020602052806000526040600020600091509150505481565b6000600160008473ffffffffffffffffffffffffffffffffffffffff1673ffffffffffffffffffffffffffffffffffffffff16815260200190815260200160002060008373ffffffffffffffffffffffffffffffffffffffff1673ffffffffffffffffffffffffffffffffffffffff16815260200190815260200160002060009054906101000a900460ff16905092915050565b600960205281600052604060002081815481106120b657600080fd5b906000526020600020016000915091505080546120d290614e3e565b80601f01602080910402602001604051908101604052809291908181526020018280546120fe90614e3e565b801561214b5780601f106121205761010080835404028352916020019161214b565b820191906000526020600020905b81548152906001019060200180831161212e57829003601f168201915b505050505081565b61215b612bc9565b73ffffffffffffffffffffffffffffffffffffffff168573ffffffffffffffffffffffffffffffffffffffff1614806121a157506121a08561219b612bc9565b612006565b5b6121e0576040517f08c379a00000000000000000000000000000000000000000000000000000000081526004016121d790614ee1565b60405180910390fd5b6121ed858585858561305e565b5050505050565b600760205280600052604060002060009150905080600001805461221790614e3e565b80601f016020809104026020016040519081016040528092919081815260200182805461224390614e3e565b80156122905780601f1061226557610100808354040283529160200191612290565b820191906000526020600020905b81548152906001019060200180831161227357829003601f168201915b5050505050908060010180546122a590614e3e565b80601f01602080910402602001604051908101604052809291908181526020018280546122d190614e3e565b801561231e5780601f106122f35761010080835404028352916020019161231e565b820191906000526020600020905b81548152906001019060200180831161230157829003601f168201915b50505050509080600201805461233390614e3e565b80601f016020809104026020016040519081016040528092919081815260200182805461235f90614e3e565b80156123ac5780601f10612381576101008083540402835291602001916123ac565b820191906000526020600020905b81548152906001019060200180831161238f57829003601f168201915b5050505050908060030160009054906101000a900463ffffffff16908060030160049054906101000a900463ffffffff16908060030160089054906101000a900461ffff16905086565b600073ffffffffffffffffffffffffffffffffffffffff163373ffffffffffffffffffffffffffffffffffffffff1603612465576040517f08c379a000000000000000000000000000000000000000000000000000000000815260040161245c906155e3565b60405180910390fd5b6000836040015167ffffffffffffffff161180156124995750680ad78ebc5ac6200000836040015167ffffffffffffffff16105b80156124b357506000836060015167ffffffffffffffff16115b80156124d55750680ad78ebc5ac6200000836060015167ffffffffffffffff16105b80156124ef57506000836080015167ffffffffffffffff16115b80156125115750680ad78ebc5ac6200000836080015167ffffffffffffffff16105b801561252757506000826060015163ffffffff16115b80156125405750633b9ac9ff826060015163ffffffff16105b801561255657506000826080015163ffffffff16115b801561256f5750633b9ac9ff826080015163ffffffff16105b8015612584575060008260a0015161ffff1610155b8015612599575061270f8260a0015161ffff16105b6125d8576040517f08c379a00000000000000000000000000000000000000000000000000000000081526004016125cf90615395565b60405180910390fd5b600083905060008390506003600081819054906101000a900467ffffffffffffffff1661260490615541565b91906101000a81548167ffffffffffffffff021916908367ffffffffffffffff1602179055508160066000600360009054906101000a900467ffffffffffffffff1667ffffffffffffffff1667ffffffffffffffff168152602001908152602001600020600082015181600001908161267d9190615251565b5060208201518160010190816126939190615251565b5060408201518160020160006101000a81548167ffffffffffffffff021916908367ffffffffffffffff16021790555060608201518160020160086101000a81548167ffffffffffffffff021916908367ffffffffffffffff16021790555060808201518160020160106101000a81548167ffffffffffffffff021916908367ffffffffffffffff1602179055509050508060076000600360009054906101000a900467ffffffffffffffff1667ffffffffffffffff1667ffffffffffffffff16815260200190815260200160002060008201518160000190816127779190615251565b50602082015181600101908161278d9190615251565b5060408201518160020190816127a39190615251565b5060608201518160030160006101000a81548163ffffffff021916908363ffffffff16021790555060808201518160030160046101000a81548163ffffffff021916908363ffffffff16021790555060a08201518160030160086101000a81548161ffff021916908361ffff16021790555090505061288733600360009054906101000a900467ffffffffffffffff1667ffffffffffffffff16876080015167ffffffffffffffff166040518060400160405280600181526020017f20000000000000000000000000000000000000000000000000000000000000008152506132f9565b846080015167ffffffffffffffff16600360009054906101000a900467ffffffffffffffff1667ffffffffffffffff163373ffffffffffffffffffffffffffffffffffffffff167f45cb06800ef86f2198c818ff1aa517473fcefada84b9980518925b682cacff4b60405160405180910390a48260096000600360009054906101000a900467ffffffffffffffff1667ffffffffffffffff1667ffffffffffffffff168152602001908152602001600020908051906020019061294b929190613904565b50846080015167ffffffffffffffff16600c6000600360009054906101000a900467ffffffffffffffff1667ffffffffffffffff16815260200190815260200160002060003373ffffffffffffffffffffffffffffffffffffffff1673ffffffffffffffffffffffffffffffffffffffff16815260200190815260200160002081905550846080015160086000600360009054906101000a900467ffffffffffffffff1667ffffffffffffffff1667ffffffffffffffff16815260200190815260200160002060003373ffffffffffffffffffffffffffffffffffffffff1673ffffffffffffffffffffffffffffffffffffffff16815260200190815260200160002060006101000a81548167ffffffffffffffff021916908367ffffffffffffffff1602179055508460800151600b6000600360009054906101000a900467ffffffffffffffff1667ffffffffffffffff1667ffffffffffffffff16815260200190815260200160002060006101000a81548167ffffffffffffffff021916908367ffffffffffffffff16021790555033600a6000600360009054906101000a900467ffffffffffffffff1667ffffffffffffffff1667ffffffffffffffff16815260200190815260200160002060006101000a81548173ffffffffffffffffffffffffffffffffffffffff021916908373ffffffffffffffffffffffffffffffffffffffff1602179055505050505050565b60007f01ffc9a7000000000000000000000000000000000000000000000000000000007bffffffffffffffffffffffffffffffffffffffffffffffffffffffff1916827bffffffffffffffffffffffffffffffffffffffffffffffffffffffff1916149050919050565b600033905090565b8151835114612c15576040517f08c379a0000000000000000000000000000000000000000000000000000000008152600401612c0c90615675565b60405180910390fd5b600073ffffffffffffffffffffffffffffffffffffffff168473ffffffffffffffffffffffffffffffffffffffff1603612c84576040517f08c379a0000000000000000000000000000000000000000000000000000000008152600401612c7b90615707565b60405180910390fd5b6000612c8e612bc9565b9050612c9e8187878787876134a9565b60005b8451811015612e4f576000858281518110612cbf57612cbe614f93565b5b602002602001015190506000858381518110612cde57612cdd614f93565b5b60200260200101519050600080600084815260200190815260200160002060008b73ffffffffffffffffffffffffffffffffffffffff1673ffffffffffffffffffffffffffffffffffffffff16815260200190815260200160002054905081811015612d7f576040517f08c379a0000000000000000000000000000000000000000000000000000000008152600401612d7690615799565b60405180910390fd5b81810360008085815260200190815260200160002060008c73ffffffffffffffffffffffffffffffffffffffff1673ffffffffffffffffffffffffffffffffffffffff168152602001908152602001600020819055508160008085815260200190815260200160002060008b73ffffffffffffffffffffffffffffffffffffffff1673ffffffffffffffffffffffffffffffffffffffff1681526020019081526020016000206000828254612e34919061550d565b9250508190555050505080612e4890614ff1565b9050612ca1565b508473ffffffffffffffffffffffffffffffffffffffff168673ffffffffffffffffffffffffffffffffffffffff168273ffffffffffffffffffffffffffffffffffffffff167f4a39dc06d4c0dbc64b70af90fd698a233a518aa5d07e595d983b8c0526c8f7fb8787604051612ec69291906157b9565b60405180910390a4612edc8187878787876134b1565b612eea8187878787876134b9565b505050505050565b8173ffffffffffffffffffffffffffffffffffffffff168373ffffffffffffffffffffffffffffffffffffffff1603612f60576040517f08c379a0000000000000000000000000000000000000000000000000000000008152600401612f5790615862565b60405180910390fd5b80600160008573ffffffffffffffffffffffffffffffffffffffff1673ffffffffffffffffffffffffffffffffffffffff16815260200190815260200160002060008473ffffffffffffffffffffffffffffffffffffffff1673ffffffffffffffffffffffffffffffffffffffff16815260200190815260200160002060006101000a81548160ff0219169083151502179055508173ffffffffffffffffffffffffffffffffffffffff168373ffffffffffffffffffffffffffffffffffffffff167f17307eab39ab6107e8899845ad3d59bd9653f200f220920489ca2b5937696c31836040516130519190613b90565b60405180910390a3505050565b600073ffffffffffffffffffffffffffffffffffffffff168473ffffffffffffffffffffffffffffffffffffffff16036130cd576040517f08c379a00000000000000000000000000000000000000000000000000000000081526004016130c490615707565b60405180910390fd5b60006130d7612bc9565b905060006130e485613690565b905060006130f185613690565b90506131018389898585896134a9565b600080600088815260200190815260200160002060008a73ffffffffffffffffffffffffffffffffffffffff1673ffffffffffffffffffffffffffffffffffffffff16815260200190815260200160002054905085811015613198576040517f08c379a000000000000000000000000000000000000000000000000000000000815260040161318f90615799565b60405180910390fd5b85810360008089815260200190815260200160002060008b73ffffffffffffffffffffffffffffffffffffffff1673ffffffffffffffffffffffffffffffffffffffff168152602001908152602001600020819055508560008089815260200190815260200160002060008a73ffffffffffffffffffffffffffffffffffffffff1673ffffffffffffffffffffffffffffffffffffffff168152602001908152602001600020600082825461324d919061550d565b925050819055508773ffffffffffffffffffffffffffffffffffffffff168973ffffffffffffffffffffffffffffffffffffffff168573ffffffffffffffffffffffffffffffffffffffff167fc3d58168c5ae7397731d063d5bbf3d657854427343f4c083240f7aacaa2d0f628a8a6040516132ca929190615882565b60405180910390a46132e0848a8a86868a6134b1565b6132ee848a8a8a8a8a61370a565b505050505050505050565b600073ffffffffffffffffffffffffffffffffffffffff168473ffffffffffffffffffffffffffffffffffffffff1603613368576040517f08c379a000000000000000000000000000000000000000000000000000000000815260040161335f9061591d565b60405180910390fd5b6000613372612bc9565b9050600061337f85613690565b9050600061338c85613690565b905061339d836000898585896134a9565b8460008088815260200190815260200160002060008973ffffffffffffffffffffffffffffffffffffffff1673ffffffffffffffffffffffffffffffffffffffff16815260200190815260200160002060008282546133fc919061550d565b925050819055508673ffffffffffffffffffffffffffffffffffffffff16600073ffffffffffffffffffffffffffffffffffffffff168473ffffffffffffffffffffffffffffffffffffffff167fc3d58168c5ae7397731d063d5bbf3d657854427343f4c083240f7aacaa2d0f62898960405161347a929190615882565b60405180910390a4613491836000898585896134b1565b6134a08360008989898961370a565b50505050505050565b505050505050565b505050505050565b6134d88473ffffffffffffffffffffffffffffffffffffffff166138e1565b15613688578373ffffffffffffffffffffffffffffffffffffffff1663bc197c8187878686866040518663ffffffff1660e01b815260040161351e959493929190615992565b6020604051808303816000875af192505050801561355a57506040513d601f19601f820116820180604052508101906135579190615a0f565b60015b6135ff57613566615a49565b806308c379a0036135c2575061357a615a6b565b8061358557506135c4565b806040517f08c379a00000000000000000000000000000000000000000000000000000000081526004016135b99190613c68565b60405180910390fd5b505b6040517f08c379a00000000000000000000000000000000000000000000000000000000081526004016135f690615b6d565b60405180910390fd5b63bc197c8160e01b7bffffffffffffffffffffffffffffffffffffffffffffffffffffffff1916817bffffffffffffffffffffffffffffffffffffffffffffffffffffffff191614613686576040517f08c379a000000000000000000000000000000000000000000000000000000000815260040161367d90615bff565b60405180910390fd5b505b505050505050565b60606000600167ffffffffffffffff8111156136af576136ae613d39565b5b6040519080825280602002602001820160405280156136dd5781602001602082028036833780820191505090505b50905082816000815181106136f5576136f4614f93565b5b60200260200101818152505080915050919050565b6137298473ffffffffffffffffffffffffffffffffffffffff166138e1565b156138d9578373ffffffffffffffffffffffffffffffffffffffff1663f23a6e6187878686866040518663ffffffff1660e01b815260040161376f959493929190615c1f565b6020604051808303816000875af19250505080156137ab57506040513d601f19601f820116820180604052508101906137a89190615a0f565b60015b613850576137b7615a49565b806308c379a00361381357506137cb615a6b565b806137d65750613815565b806040517f08c379a000000000000000000000000000000000000000000000000000000000815260040161380a9190613c68565b60405180910390fd5b505b6040517f08c379a000000000000000000000000000000000000000000000000000000000815260040161384790615b6d565b60405180910390fd5b63f23a6e6160e01b7bffffffffffffffffffffffffffffffffffffffffffffffffffffffff1916817bffffffffffffffffffffffffffffffffffffffffffffffffffffffff1916146138d7576040517f08c379a00000000000000000000000000000000000000000000000000000000081526004016138ce90615bff565b60405180910390fd5b505b505050505050565b6000808273ffffffffffffffffffffffffffffffffffffffff163b119050919050565b82805482825590600052602060002090810192821561394c579160200282015b8281111561394b57825182908161393b9190615251565b5091602001919060010190613924565b5b509050613959919061395d565b5090565b5b8082111561397d57600081816139749190613981565b5060010161395e565b5090565b50805461398d90614e3e565b6000825580601f1061399f57506139be565b601f0160209004906000526020600020908101906139bd91906139c1565b5b50565b5b808211156139da5760008160009055506001016139c2565b5090565b6000604051905090565b600080fd5b600080fd5b600073ffffffffffffffffffffffffffffffffffffffff82169050919050565b6000613a1d826139f2565b9050919050565b613a2d81613a12565b8114613a3857600080fd5b50565b600081359050613a4a81613a24565b92915050565b6000819050919050565b613a6381613a50565b8114613a6e57600080fd5b50565b600081359050613a8081613a5a565b92915050565b60008060408385031215613a9d57613a9c6139e8565b5b6000613aab85828601613a3b565b9250506020613abc85828601613a71565b9150509250929050565b613acf81613a50565b82525050565b6000602082019050613aea6000830184613ac6565b92915050565b60007fffffffff0000000000000000000000000000000000000000000000000000000082169050919050565b613b2581613af0565b8114613b3057600080fd5b50565b600081359050613b4281613b1c565b92915050565b600060208284031215613b5e57613b5d6139e8565b5b6000613b6c84828501613b33565b91505092915050565b60008115159050919050565b613b8a81613b75565b82525050565b6000602082019050613ba56000830184613b81565b92915050565b600060208284031215613bc157613bc06139e8565b5b6000613bcf84828501613a71565b91505092915050565b600081519050919050565b600082825260208201905092915050565b60005b83811015613c12578082015181840152602081019050613bf7565b60008484015250505050565b6000601f19601f8301169050919050565b6000613c3a82613bd8565b613c448185613be3565b9350613c54818560208601613bf4565b613c5d81613c1e565b840191505092915050565b60006020820190508181036000830152613c828184613c2f565b905092915050565b600067ffffffffffffffff82169050919050565b613ca781613c8a565b8114613cb257600080fd5b50565b600081359050613cc481613c9e565b92915050565b60008060408385031215613ce157613ce06139e8565b5b6000613cef85828601613cb5565b9250506020613d0085828601613a3b565b9150509250929050565b613d1381613c8a565b82525050565b6000602082019050613d2e6000830184613d0a565b92915050565b600080fd5b7f4e487b7100000000000000000000000000000000000000000000000000000000600052604160045260246000fd5b613d7182613c1e565b810181811067ffffffffffffffff82111715613d9057613d8f613d39565b5b80604052505050565b6000613da36139de565b9050613daf8282613d68565b919050565b600067ffffffffffffffff821115613dcf57613dce613d39565b5b602082029050602081019050919050565b600080fd5b6000613df8613df384613db4565b613d99565b90508083825260208201905060208402830185811115613e1b57613e1a613de0565b5b835b81811015613e445780613e308882613a71565b845260208401935050602081019050613e1d565b5050509392505050565b600082601f830112613e6357613e62613d34565b5b8135613e73848260208601613de5565b91505092915050565b600080fd5b600067ffffffffffffffff821115613e9c57613e9b613d39565b5b613ea582613c1e565b9050602081019050919050565b82818337600083830152505050565b6000613ed4613ecf84613e81565b613d99565b905082815260208101848484011115613ef057613eef613e7c565b5b613efb848285613eb2565b509392505050565b600082601f830112613f1857613f17613d34565b5b8135613f28848260208601613ec1565b91505092915050565b600080600080600060a08688031215613f4d57613f4c6139e8565b5b6000613f5b88828901613a3b565b9550506020613f6c88828901613a3b565b945050604086013567ffffffffffffffff811115613f8d57613f8c6139ed565b5b613f9988828901613e4e565b935050606086013567ffffffffffffffff811115613fba57613fb96139ed565b5b613fc688828901613e4e565b925050608086013567ffffffffffffffff811115613fe757613fe66139ed565b5b613ff388828901613f03565b9150509295509295909350565b600067ffffffffffffffff82111561401b5761401a613d39565b5b602082029050602081019050919050565b600061403f61403a84614000565b613d99565b9050808382526020820190506020840283018581111561406257614061613de0565b5b835b8181101561408b57806140778882613a3b565b845260208401935050602081019050614064565b5050509392505050565b600082601f8301126140aa576140a9613d34565b5b81356140ba84826020860161402c565b91505092915050565b600080604083850312156140da576140d96139e8565b5b600083013567ffffffffffffffff8111156140f8576140f76139ed565b5b61410485828601614095565b925050602083013567ffffffffffffffff811115614125576141246139ed565b5b61413185828601613e4e565b9150509250929050565b600081519050919050565b600082825260208201905092915050565b6000819050602082019050919050565b61417081613a50565b82525050565b60006141828383614167565b60208301905092915050565b6000602082019050919050565b60006141a68261413b565b6141b08185614146565b93506141bb83614157565b8060005b838110156141ec5781516141d38882614176565b97506141de8361418e565b9250506001810190506141bf565b5085935050505092915050565b60006020820190508181036000830152614213818461419b565b905092915050565b600080fd5b600080fd5b600067ffffffffffffffff8211156142405761423f613d39565b5b61424982613c1e565b9050602081019050919050565b600061426961426484614225565b613d99565b90508281526020810184848401111561428557614284613e7c565b5b614290848285613eb2565b509392505050565b600082601f8301126142ad576142ac613d34565b5b81356142bd848260208601614256565b91505092915050565b600063ffffffff82169050919050565b6142df816142c6565b81146142ea57600080fd5b50565b6000813590506142fc816142d6565b92915050565b600061ffff82169050919050565b61431981614302565b811461432457600080fd5b50565b60008135905061433681614310565b92915050565b600061014082840312156143535761435261421b565b5b61435e610140613d99565b9050600082013567ffffffffffffffff81111561437e5761437d614220565b5b61438a84828501614298565b600083015250602082013567ffffffffffffffff8111156143ae576143ad614220565b5b6143ba84828501614298565b60208301525060406143ce84828501613cb5565b60408301525060606143e284828501613cb5565b606083015250608082013567ffffffffffffffff81111561440657614405614220565b5b61441284828501614298565b60808301525060a082013567ffffffffffffffff81111561443657614435614220565b5b61444284828501614298565b60a08301525060c082013567ffffffffffffffff81111561446657614465614220565b5b61447284828501614298565b60c08301525060e0614486848285016142ed565b60e08301525061010061449b848285016142ed565b610100830152506101206144b184828501614327565b6101208301525092915050565b600067ffffffffffffffff8211156144d9576144d8613d39565b5b602082029050602081019050919050565b60006144fd6144f8846144be565b613d99565b905080838252602082019050602084028301858111156145205761451f613de0565b5b835b8181101561456757803567ffffffffffffffff81111561454557614544613d34565b5b8086016145528982614298565b85526020850194505050602081019050614522565b5050509392505050565b600082601f83011261458657614585613d34565b5b81356145968482602086016144ea565b91505092915050565b6000806000606084860312156145b8576145b76139e8565b5b60006145c686828701613cb5565b935050602084013567ffffffffffffffff8111156145e7576145e66139ed565b5b6145f38682870161433c565b925050604084013567ffffffffffffffff811115614614576146136139ed565b5b61462086828701614571565b9150509250925092565b6000602082840312156146405761463f6139e8565b5b600061464e84828501613cb5565b91505092915050565b600060a08201905081810360008301526146718188613c2f565b905081810360208301526146858187613c2f565b90506146946040830186613d0a565b6146a16060830185613d0a565b6146ae6080830184613d0a565b9695505050505050565b6146c181613a12565b82525050565b60006020820190506146dc60008301846146b8565b92915050565b6000806000606084860312156146fb576146fa6139e8565b5b600061470986828701613a3b565b935050602061471a86828701613cb5565b925050604061472b86828701613cb5565b9150509250925092565b600060c08201905061474a6000830189613d0a565b61475760208301886146b8565b6147646040830187613d0a565b6147716060830186613d0a565b61477e60808301856146b8565b61478b60a0830184613ac6565b979650505050505050565b600080604083850312156147ad576147ac6139e8565b5b60006147bb85828601613cb5565b92505060206147cc85828601613cb5565b9150509250929050565b600060a0820190506147eb6000830188613d0a565b6147f860208301876146b8565b61480560408301866146b8565b6148126060830185613d0a565b61481f6080830184613ac6565b9695505050505050565b61483281613b75565b811461483d57600080fd5b50565b60008135905061484f81614829565b92915050565b6000806040838503121561486c5761486b6139e8565b5b600061487a85828601613a3b565b925050602061488b85828601614840565b9150509250929050565b600060ff82169050919050565b6148ab81614895565b82525050565b60006020820190506148c660008301846148a2565b92915050565b600080600080608085870312156148e6576148e56139e8565b5b60006148f487828801613cb5565b945050602061490587828801613a3b565b935050604061491687828801613a3b565b925050606061492787828801613cb5565b91505092959194509250565b6000806040838503121561494a576149496139e8565b5b600061495885828601613a71565b925050602061496985828601613a3b565b9150509250929050565b6000806040838503121561498a576149896139e8565b5b600061499885828601613a3b565b92505060206149a985828601613a3b565b9150509250929050565b600080604083850312156149ca576149c96139e8565b5b60006149d885828601613cb5565b92505060206149e985828601613a71565b9150509250929050565b600080600080600060a08688031215614a0f57614a0e6139e8565b5b6000614a1d88828901613a3b565b9550506020614a2e88828901613a3b565b9450506040614a3f88828901613a71565b9350506060614a5088828901613a71565b925050608086013567ffffffffffffffff811115614a7157614a706139ed565b5b614a7d88828901613f03565b9150509295509295909350565b614a93816142c6565b82525050565b614aa281614302565b82525050565b600060c0820190508181036000830152614ac28189613c2f565b90508181036020830152614ad68188613c2f565b90508181036040830152614aea8187613c2f565b9050614af96060830186614a8a565b614b066080830185614a8a565b614b1360a0830184614a99565b979650505050505050565b600060a08284031215614b3457614b3361421b565b5b614b3e60a0613d99565b9050600082013567ffffffffffffffff811115614b5e57614b5d614220565b5b614b6a84828501614298565b600083015250602082013567ffffffffffffffff811115614b8e57614b8d614220565b5b614b9a84828501614298565b6020830152506040614bae84828501613cb5565b6040830152506060614bc284828501613cb5565b6060830152506080614bd684828501613cb5565b60808301525092915050565b600060c08284031215614bf857614bf761421b565b5b614c0260c0613d99565b9050600082013567ffffffffffffffff811115614c2257614c21614220565b5b614c2e84828501614298565b600083015250602082013567ffffffffffffffff811115614c5257614c51614220565b5b614c5e84828501614298565b602083015250604082013567ffffffffffffffff811115614c8257614c81614220565b5b614c8e84828501614298565b6040830152506060614ca2848285016142ed565b6060830152506080614cb6848285016142ed565b60808301525060a0614cca84828501614327565b60a08301525092915050565b600080600060608486031215614cef57614cee6139e8565b5b600084013567ffffffffffffffff811115614d0d57614d0c6139ed565b5b614d1986828701614b1e565b935050602084013567ffffffffffffffff811115614d3a57614d396139ed565b5b614d4686828701614be2565b925050604084013567ffffffffffffffff811115614d6757614d666139ed565b5b614d7386828701614571565b9150509250925092565b7f455243313135353a2061646472657373207a65726f206973206e6f742061207660008201527f616c6964206f776e657200000000000000000000000000000000000000000000602082015250565b6000614dd9602a83613be3565b9150614de482614d7d565b604082019050919050565b60006020820190508181036000830152614e0881614dcc565b9050919050565b7f4e487b7100000000000000000000000000000000000000000000000000000000600052602260045260246000fd5b60006002820490506001821680614e5657607f821691505b602082108103614e6957614e68614e0f565b5b50919050565b7f455243313135353a2063616c6c6572206973206e6f7420746f6b656e206f776e60008201527f6572206f7220617070726f766564000000000000000000000000000000000000602082015250565b6000614ecb602e83613be3565b9150614ed682614e6f565b604082019050919050565b60006020820190508181036000830152614efa81614ebe565b9050919050565b7f455243313135353a206163636f756e747320616e6420696473206c656e67746860008201527f206d69736d617463680000000000000000000000000000000000000000000000602082015250565b6000614f5d602983613be3565b9150614f6882614f01565b604082019050919050565b60006020820190508181036000830152614f8c81614f50565b9050919050565b7f4e487b7100000000000000000000000000000000000000000000000000000000600052603260045260246000fd5b7f4e487b7100000000000000000000000000000000000000000000000000000000600052601160045260246000fd5b6000614ffc82613a50565b91507fffffffffffffffffffffffffffffffffffffffffffffffffffffffffffffffff820361502e5761502d614fc2565b5b600182019050919050565b7f596f7520617265206e6f74206f776e6572206f66207468697320686f7573653a600082015250565b600061506f602083613be3565b915061507a82615039565b602082019050919050565b6000602082019050818103600083015261509e81615062565b9050919050565b60008190508160005260206000209050919050565b60006020601f8301049050919050565b600082821b905092915050565b6000600883026151077fffffffffffffffffffffffffffffffffffffffffffffffffffffffffffffffff826150ca565b61511186836150ca565b95508019841693508086168417925050509392505050565b6000819050919050565b600061514e61514961514484613a50565b615129565b613a50565b9050919050565b6000819050919050565b61516883615133565b61517c61517482615155565b8484546150d7565b825550505050565b600090565b615191615184565b61519c81848461515f565b505050565b5b818110156151c0576151b5600082615189565b6001810190506151a2565b5050565b601f821115615205576151d6816150a5565b6151df846150ba565b810160208510156151ee578190505b6152026151fa856150ba565b8301826151a1565b50505b505050565b600082821c905092915050565b60006152286000198460080261520a565b1980831691505092915050565b60006152418383615217565b9150826002028217905092915050565b61525a82613bd8565b67ffffffffffffffff81111561527357615272613d39565b5b61527d8254614e3e565b6152888282856151c4565b600060209050601f8311600181146152bb57600084156152a9578287015190505b6152b38582615235565b86555061531b565b601f1984166152c9866150a5565b60005b828110156152f1578489015182556001820191506020850194506020810190506152cc565b8683101561530e578489015161530a601f891682615217565b8355505b6001600288020188555050505b505050505050565b7f5468657365206c6f7420206e6f74206d6174636820746865207265717569726560008201527f6d656e7473000000000000000000000000000000000000000000000000000000602082015250565b600061537f602583613be3565b915061538a82615323565b604082019050919050565b600060208201905081810360008301526153ae81615372565b9050919050565b7f20496e73756666696369656e742062616c616e636520746f207472616e73666560008201527f72206f7220796f75206172652074727920746f2073656e64206d6f726520616d60208201527f6f756e74207468616e20796f75206f776e200000000000000000000000000000604082015250565b6000615437605283613be3565b9150615442826153b5565b606082019050919050565b600060208201905081810360008301526154668161542a565b9050919050565b7f496e73756666696369656e74206172656120746f207472616e73666572000000600082015250565b60006154a3601d83613be3565b91506154ae8261546d565b602082019050919050565b600060208201905081810360008301526154d281615496565b9050919050565b60006154e482613a50565b91506154ef83613a50565b925082820390508181111561550757615506614fc2565b5b92915050565b600061551882613a50565b915061552383613a50565b925082820190508082111561553b5761553a614fc2565b5b92915050565b600061554c82613c8a565b915067ffffffffffffffff820361556657615565614fc2565b5b600182019050919050565b7f4d696e74696e672066726f6d207a65726f2061646472657373206973206e6f7460008201527f20416c6c6f7765642e2e2e000000000000000000000000000000000000000000602082015250565b60006155cd602b83613be3565b91506155d882615571565b604082019050919050565b600060208201905081810360008301526155fc816155c0565b9050919050565b7f455243313135353a2069647320616e6420616d6f756e7473206c656e6774682060008201527f6d69736d61746368000000000000000000000000000000000000000000000000602082015250565b600061565f602883613be3565b915061566a82615603565b604082019050919050565b6000602082019050818103600083015261568e81615652565b9050919050565b7f455243313135353a207472616e7366657220746f20746865207a65726f20616460008201527f6472657373000000000000000000000000000000000000000000000000000000602082015250565b60006156f1602583613be3565b91506156fc82615695565b604082019050919050565b60006020820190508181036000830152615720816156e4565b9050919050565b7f455243313135353a20696e73756666696369656e742062616c616e636520666f60008201527f72207472616e7366657200000000000000000000000000000000000000000000602082015250565b6000615783602a83613be3565b915061578e82615727565b604082019050919050565b600060208201905081810360008301526157b281615776565b9050919050565b600060408201905081810360008301526157d3818561419b565b905081810360208301526157e7818461419b565b90509392505050565b7f455243313135353a2073657474696e6720617070726f76616c2073746174757360008201527f20666f722073656c660000000000000000000000000000000000000000000000602082015250565b600061584c602983613be3565b9150615857826157f0565b604082019050919050565b6000602082019050818103600083015261587b8161583f565b9050919050565b60006040820190506158976000830185613ac6565b6158a46020830184613ac6565b9392505050565b7f455243313135353a206d696e7420746f20746865207a65726f2061646472657360008201527f7300000000000000000000000000000000000000000000000000000000000000602082015250565b6000615907602183613be3565b9150615912826158ab565b604082019050919050565b60006020820190508181036000830152615936816158fa565b9050919050565b600081519050919050565b600082825260208201905092915050565b60006159648261593d565b61596e8185615948565b935061597e818560208601613bf4565b61598781613c1e565b840191505092915050565b600060a0820190506159a760008301886146b8565b6159b460208301876146b8565b81810360408301526159c6818661419b565b905081810360608301526159da818561419b565b905081810360808301526159ee8184615959565b90509695505050505050565b600081519050615a0981613b1c565b92915050565b600060208284031215615a2557615a246139e8565b5b6000615a33848285016159fa565b91505092915050565b60008160e01c9050919050565b600060033d1115615a685760046000803e615a65600051615a3c565b90505b90565b600060443d10615af857615a7d6139de565b60043d036004823e80513d602482011167ffffffffffffffff82111715615aa5575050615af8565b808201805167ffffffffffffffff811115615ac35750505050615af8565b80602083010160043d038501811115615ae0575050505050615af8565b615aef82602001850186613d68565b82955050505050505b90565b7f455243313135353a207472616e7366657220746f206e6f6e2d4552433131353560008201527f526563656976657220696d706c656d656e746572000000000000000000000000602082015250565b6000615b57603483613be3565b9150615b6282615afb565b604082019050919050565b60006020820190508181036000830152615b8681615b4a565b9050919050565b7f455243313135353a204552433131353552656365697665722072656a6563746560008201527f6420746f6b656e73000000000000000000000000000000000000000000000000602082015250565b6000615be9602883613be3565b9150615bf482615b8d565b604082019050919050565b60006020820190508181036000830152615c1881615bdc565b9050919050565b600060a082019050615c3460008301886146b8565b615c4160208301876146b8565b615c4e6040830186613ac6565b615c5b6060830185613ac6565b8181036080830152615c6d8184615959565b9050969550505050505056fea264697066735822122092249544b2ad254700860cd116493b99aaf64b6d45bd65f1e618e91482db9aed64736f6c63430008100033",
    "linkReferences": {},
    "deployedLinkReferences": {}
}